{
  "_format": "hh-sol-artifact-1",
  "contractName": "Klapes",
  "sourceName": "contracts/Klapes.sol",
  "abi": [
    {
      "constant": true,
      "inputs": [
        {
          "name": "interfaceId",
          "type": "bytes4"
        }
      ],
      "name": "supportsInterface",
      "outputs": [
        {
          "name": "",
          "type": "bool"
        }
      ],
      "payable": false,
      "stateMutability": "view",
      "type": "function"
    },
    {
      "constant": false,
      "inputs": [
        {
          "name": "account",
          "type": "address"
        }
      ],
      "name": "removeBurner",
      "outputs": [],
      "payable": false,
      "stateMutability": "nonpayable",
      "type": "function"
    },
    {
      "constant": true,
      "inputs": [],
      "name": "name",
      "outputs": [
        {
          "name": "",
          "type": "string"
        }
      ],
      "payable": false,
      "stateMutability": "view",
      "type": "function"
    },
    {
      "constant": true,
      "inputs": [
        {
          "name": "tokenId",
          "type": "uint256"
        }
      ],
      "name": "getApproved",
      "outputs": [
        {
          "name": "",
          "type": "address"
        }
      ],
      "payable": false,
      "stateMutability": "view",
      "type": "function"
    },
    {
      "constant": false,
      "inputs": [
        {
          "name": "to",
          "type": "address"
        },
        {
          "name": "tokenId",
          "type": "uint256"
        }
      ],
      "name": "approve",
      "outputs": [],
      "payable": false,
      "stateMutability": "nonpayable",
      "type": "function"
    },
    {
      "constant": true,
      "inputs": [],
      "name": "totalSupply",
      "outputs": [
        {
          "name": "",
          "type": "uint256"
        }
      ],
      "payable": false,
      "stateMutability": "view",
      "type": "function"
    },
    {
      "constant": false,
      "inputs": [
        {
          "name": "from",
          "type": "address"
        },
        {
          "name": "to",
          "type": "address"
        },
        {
          "name": "tokenId",
          "type": "uint256"
        }
      ],
      "name": "transferFrom",
      "outputs": [],
      "payable": false,
      "stateMutability": "nonpayable",
      "type": "function"
    },
    {
      "constant": true,
      "inputs": [
        {
          "name": "owner",
          "type": "address"
        },
        {
          "name": "index",
          "type": "uint256"
        }
      ],
      "name": "tokenOfOwnerByIndex",
      "outputs": [
        {
          "name": "",
          "type": "uint256"
        }
      ],
      "payable": false,
      "stateMutability": "view",
      "type": "function"
    },
    {
      "constant": false,
      "inputs": [
        {
          "name": "to",
          "type": "address"
        },
        {
          "name": "tokenId",
          "type": "uint256"
        }
      ],
      "name": "mint",
      "outputs": [
        {
          "name": "",
          "type": "bool"
        }
      ],
      "payable": false,
      "stateMutability": "nonpayable",
      "type": "function"
    },
    {
      "constant": false,
      "inputs": [
        {
          "name": "from",
          "type": "address"
        },
        {
          "name": "to",
          "type": "address"
        },
        {
          "name": "tokenId",
          "type": "uint256"
        }
      ],
      "name": "safeTransferFrom",
      "outputs": [],
      "payable": false,
      "stateMutability": "nonpayable",
      "type": "function"
    },
    {
      "constant": false,
      "inputs": [
        {
          "name": "tokenId",
          "type": "uint256"
        }
      ],
      "name": "burn",
      "outputs": [
        {
          "name": "",
          "type": "bool"
        }
      ],
      "payable": false,
      "stateMutability": "nonpayable",
      "type": "function"
    },
    {
      "constant": true,
      "inputs": [
        {
          "name": "account",
          "type": "address"
        }
      ],
      "name": "isBurner",
      "outputs": [
        {
          "name": "",
          "type": "bool"
        }
      ],
      "payable": false,
      "stateMutability": "view",
      "type": "function"
    },
    {
      "constant": true,
      "inputs": [
        {
          "name": "index",
          "type": "uint256"
        }
      ],
      "name": "tokenByIndex",
      "outputs": [
        {
          "name": "",
          "type": "uint256"
        }
      ],
      "payable": false,
      "stateMutability": "view",
      "type": "function"
    },
    {
      "constant": false,
      "inputs": [
        {
          "name": "_tokenURIExternal",
          "type": "address"
        }
      ],
      "name": "updateTokenURIExternal",
      "outputs": [],
      "payable": false,
      "stateMutability": "nonpayable",
      "type": "function"
    },
    {
      "constant": false,
      "inputs": [
        {
          "name": "baseURI_",
          "type": "string"
        }
      ],
      "name": "setBaseURI",
      "outputs": [],
      "payable": false,
      "stateMutability": "nonpayable",
      "type": "function"
    },
    {
      "constant": true,
      "inputs": [
        {
          "name": "tokenId",
          "type": "uint256"
        }
      ],
      "name": "ownerOf",
      "outputs": [
        {
          "name": "",
          "type": "address"
        }
      ],
      "payable": false,
      "stateMutability": "view",
      "type": "function"
    },
    {
      "constant": true,
      "inputs": [
        {
          "name": "owner",
          "type": "address"
        }
      ],
      "name": "balanceOf",
      "outputs": [
        {
          "name": "",
          "type": "uint256"
        }
      ],
      "payable": false,
      "stateMutability": "view",
      "type": "function"
    },
    {
      "constant": false,
      "inputs": [],
      "name": "renounceOwnership",
      "outputs": [],
      "payable": false,
      "stateMutability": "nonpayable",
      "type": "function"
    },
    {
      "constant": true,
      "inputs": [],
      "name": "owner",
      "outputs": [
        {
          "name": "",
          "type": "address"
        }
      ],
      "payable": false,
      "stateMutability": "view",
      "type": "function"
    },
    {
      "constant": true,
      "inputs": [],
      "name": "isOwner",
      "outputs": [
        {
          "name": "",
          "type": "bool"
        }
      ],
      "payable": false,
      "stateMutability": "view",
      "type": "function"
    },
    {
      "constant": true,
      "inputs": [],
      "name": "symbol",
      "outputs": [
        {
          "name": "",
          "type": "string"
        }
      ],
      "payable": false,
      "stateMutability": "view",
      "type": "function"
    },
    {
      "constant": false,
      "inputs": [
        {
          "name": "account",
          "type": "address"
        }
      ],
      "name": "addMinter",
      "outputs": [],
      "payable": false,
      "stateMutability": "nonpayable",
      "type": "function"
    },
    {
      "constant": false,
      "inputs": [],
      "name": "renounceMinter",
      "outputs": [],
      "payable": false,
      "stateMutability": "nonpayable",
      "type": "function"
    },
    {
      "constant": false,
      "inputs": [
        {
          "name": "to",
          "type": "address"
        },
        {
          "name": "approved",
          "type": "bool"
        }
      ],
      "name": "setApprovalForAll",
      "outputs": [],
      "payable": false,
      "stateMutability": "nonpayable",
      "type": "function"
    },
    {
      "constant": true,
      "inputs": [
        {
          "name": "account",
          "type": "address"
        }
      ],
      "name": "isMinter",
      "outputs": [
        {
          "name": "",
          "type": "bool"
        }
      ],
      "payable": false,
      "stateMutability": "view",
      "type": "function"
    },
    {
      "constant": false,
      "inputs": [
        {
          "name": "from",
          "type": "address"
        },
        {
          "name": "to",
          "type": "address"
        },
        {
          "name": "tokenId",
          "type": "uint256"
        },
        {
          "name": "_data",
          "type": "bytes"
        }
      ],
      "name": "safeTransferFrom",
      "outputs": [],
      "payable": false,
      "stateMutability": "nonpayable",
      "type": "function"
    },
    {
      "constant": true,
      "inputs": [
        {
          "name": "tokenId",
          "type": "uint256"
        }
      ],
      "name": "tokenURI",
      "outputs": [
        {
          "name": "",
          "type": "string"
        }
      ],
      "payable": false,
      "stateMutability": "view",
      "type": "function"
    },
    {
      "constant": true,
      "inputs": [
        {
          "name": "owner",
          "type": "address"
        },
        {
          "name": "operator",
          "type": "address"
        }
      ],
      "name": "isApprovedForAll",
      "outputs": [
        {
          "name": "",
          "type": "bool"
        }
      ],
      "payable": false,
      "stateMutability": "view",
      "type": "function"
    },
    {
      "constant": false,
      "inputs": [],
      "name": "renounceBurner",
      "outputs": [],
      "payable": false,
      "stateMutability": "nonpayable",
      "type": "function"
    },
    {
      "constant": false,
      "inputs": [
        {
          "name": "newOwner",
          "type": "address"
        }
      ],
      "name": "transferOwnership",
      "outputs": [],
      "payable": false,
      "stateMutability": "nonpayable",
      "type": "function"
    },
    {
      "constant": false,
      "inputs": [
        {
          "name": "account",
          "type": "address"
        }
      ],
      "name": "addBurner",
      "outputs": [],
      "payable": false,
      "stateMutability": "nonpayable",
      "type": "function"
    },
    {
      "inputs": [],
      "payable": false,
      "stateMutability": "nonpayable",
      "type": "constructor"
    },
    {
      "anonymous": false,
      "inputs": [
        {
          "indexed": true,
          "name": "previousOwner",
          "type": "address"
        },
        {
          "indexed": true,
          "name": "newOwner",
          "type": "address"
        }
      ],
      "name": "OwnershipTransferred",
      "type": "event"
    },
    {
      "anonymous": false,
      "inputs": [
        {
          "indexed": true,
          "name": "account",
          "type": "address"
        }
      ],
      "name": "BurnerAdded",
      "type": "event"
    },
    {
      "anonymous": false,
      "inputs": [
        {
          "indexed": true,
          "name": "account",
          "type": "address"
        }
      ],
      "name": "BurnerRemoved",
      "type": "event"
    },
    {
      "anonymous": false,
      "inputs": [
        {
          "indexed": true,
          "name": "account",
          "type": "address"
        }
      ],
      "name": "MinterAdded",
      "type": "event"
    },
    {
      "anonymous": false,
      "inputs": [
        {
          "indexed": true,
          "name": "account",
          "type": "address"
        }
      ],
      "name": "MinterRemoved",
      "type": "event"
    },
    {
      "anonymous": false,
      "inputs": [
        {
          "indexed": true,
          "name": "from",
          "type": "address"
        },
        {
          "indexed": true,
          "name": "to",
          "type": "address"
        },
        {
          "indexed": true,
          "name": "tokenId",
          "type": "uint256"
        }
      ],
      "name": "Transfer",
      "type": "event"
    },
    {
      "anonymous": false,
      "inputs": [
        {
          "indexed": true,
          "name": "owner",
          "type": "address"
        },
        {
          "indexed": true,
          "name": "approved",
          "type": "address"
        },
        {
          "indexed": true,
          "name": "tokenId",
          "type": "uint256"
        }
      ],
      "name": "Approval",
      "type": "event"
    },
    {
      "anonymous": false,
      "inputs": [
        {
          "indexed": true,
          "name": "owner",
          "type": "address"
        },
        {
          "indexed": true,
          "name": "operator",
          "type": "address"
        },
        {
          "indexed": false,
          "name": "approved",
          "type": "bool"
        }
      ],
      "name": "ApprovalForAll",
      "type": "event"
    }
  ],
  "bytecode": "0x60806040523480156200001157600080fd5b506040518060400160405280600681526020017f4b6c6170657300000000000000000000000000000000000000000000000000008152506040518060400160405280600681526020017f4b4c415045530000000000000000000000000000000000000000000000000000815250818181816200009a6301ffc9a760e01b6200018860201b60201c565b620000b26380ac58cd60e01b6200018860201b60201c565b620000ca63780e9d6360e01b6200018860201b60201c565b8151620000df90600990602085019062000422565b508051620000f590600a90602084019062000422565b506200010e635b5e139f60e01b6200018860201b60201c565b5050505062000123336200025760201b60201c565b6200013433620002a960201b60201c565b600e80546001600160a01b0319163317908190556040516001600160a01b0391909116906000907f8be0079c531659141344cd1fd0a4f28419497f9722a3daafe3b4186f6b6457e0908290a35050620004c7565b7fffffffff0000000000000000000000000000000000000000000000000000000080821614156200021a57604080517f08c379a000000000000000000000000000000000000000000000000000000000815260206004820152601b60248201527f4b495031333a20696e76616c696420696e746572666163652069640000000000604482015290519081900360640190fd5b7fffffffff00000000000000000000000000000000000000000000000000000000166000908152602081905260409020805460ff19166001179055565b6200027281600c620002fb60201b620020881790919060201c565b6040516001600160a01b038216907f6ae172837ea30b801fbfcdd4108aa1d5bf8ff775444fd70256b44e6bf3dfc3f690600090a250565b620002c481600d620002fb60201b620020881790919060201c565b6040516001600160a01b038216907f86e57fd2b90329052917118de7c3f521f400d439b9650deaa906a25b08b9456090600090a250565b6200030d82826200039f60201b60201c565b156200037a57604080517f08c379a000000000000000000000000000000000000000000000000000000000815260206004820152601f60248201527f526f6c65733a206163636f756e7420616c72656164792068617320726f6c6500604482015290519081900360640190fd5b6001600160a01b0316600090815260209190915260409020805460ff19166001179055565b60006001600160a01b03821662000402576040517f08c379a000000000000000000000000000000000000000000000000000000000815260040180806020018281038252602281526020018062002d046022913960400191505060405180910390fd5b506001600160a01b03166000908152602091909152604090205460ff1690565b828054600181600116156101000203166002900490600052602060002090601f016020900481019282601f106200046557805160ff191683800117855562000495565b8280016001018555821562000495579182015b828111156200049557825182559160200191906001019062000478565b50620004a3929150620004a7565b5090565b620004c491905b80821115620004a35760008155600101620004ae565b90565b61282d80620004d76000396000f3fe608060405234801561001057600080fd5b50600436106101e55760003560e01c80636352211e1161010f578063a22cb465116100a2578063e985e9c511610071578063e985e9c514610701578063e9ec9e8b1461072f578063f2fde38b14610737578063f44637ba1461075d576101e5565b8063a22cb465146105ca578063aa271e1a146105f8578063b88d4fde1461061e578063c87b56dd146106e4576101e5565b80638f32d59b116100de5780638f32d59b1461058c57806395d89b4114610594578063983b2d561461059c57806398650275146105c2576101e5565b80636352211e1461053957806370a0823114610556578063715018a61461057c5780638da5cb5b14610584576101e5565b80632f745c59116101875780634334614a116101565780634334614a1461042a5780634f6ccce71461045057806350d6e5501461046d57806355f804b314610493576101e5565b80632f745c591461037f57806340c10f19146103ab57806342842e0e146103d757806342966c681461040d576101e5565b8063081812fc116101c3578063081812fc146102ca578063095ea7b31461030357806318160ddd1461032f57806323b872dd14610349576101e5565b806301ffc9a7146101ea578063028468581461022557806306fdde031461024d575b600080fd5b6102116004803603602081101561020057600080fd5b50356001600160e01b031916610783565b604080519115158252519081900360200190f35b61024b6004803603602081101561023b57600080fd5b50356001600160a01b03166107a6565b005b6102556107f9565b6040805160208082528351818301528351919283929083019185019080838360005b8381101561028f578181015183820152602001610277565b50505050905090810190601f1680156102bc5780820380516001836020036101000a031916815260200191505b509250505060405180910390f35b6102e7600480360360208110156102e057600080fd5b5035610890565b604080516001600160a01b039092168252519081900360200190f35b61024b6004803603604081101561031957600080fd5b506001600160a01b0381351690602001356108f5565b610337610a22565b60408051918252519081900360200190f35b61024b6004803603606081101561035f57600080fd5b506001600160a01b03813581169160208101359091169060400135610a28565b6103376004803603604081101561039557600080fd5b506001600160a01b038135169060200135610a80565b610211600480360360408110156103c157600080fd5b506001600160a01b038135169060200135610b02565b61024b600480360360608110156103ed57600080fd5b506001600160a01b03813581169160208101359091169060400135610b5e565b6102116004803603602081101561042357600080fd5b5035610b79565b6102116004803603602081101561044057600080fd5b50356001600160a01b0316610bd3565b6103376004803603602081101561046657600080fd5b5035610bec565b61024b6004803603602081101561048357600080fd5b50356001600160a01b0316610c55565b61024b600480360360208110156104a957600080fd5b8101906020810181356401000000008111156104c457600080fd5b8201836020820111156104d657600080fd5b803590602001918460018302840111640100000000831117156104f857600080fd5b91908080601f016020809104026020016040519081016040528093929190818152602001838380828437600092019190915250929550610cc1945050505050565b6102e76004803603602081101561054f57600080fd5b5035610d22565b6103376004803603602081101561056c57600080fd5b50356001600160a01b0316610d79565b61024b610de4565b6102e7610e78565b610211610e87565b610255610e98565b61024b600480360360208110156105b257600080fd5b50356001600160a01b0316610ef9565b61024b610f49565b61024b600480360360408110156105e057600080fd5b506001600160a01b0381351690602001351515610f54565b6102116004803603602081101561060e57600080fd5b50356001600160a01b0316611023565b61024b6004803603608081101561063457600080fd5b6001600160a01b0382358116926020810135909116916040820135919081019060808101606082013564010000000081111561066f57600080fd5b82018360208201111561068157600080fd5b803590602001918460018302840111640100000000831117156106a357600080fd5b91908080601f016020809104026020016040519081016040528093929190818152602001838380828437600092019190915250929550611036945050505050565b610255600480360360208110156106fa57600080fd5b5035611091565b6102116004803603604081101561071757600080fd5b506001600160a01b03813581169160200135166112b5565b61024b6112e3565b61024b6004803603602081101561074d57600080fd5b50356001600160a01b03166112ec565b61024b6004803603602081101561077357600080fd5b50356001600160a01b031661133f565b6001600160e01b0319811660009081526020819052604090205460ff165b919050565b6107af33610bd3565b6107ed57604051600160e51b62461bcd0281526004018080602001828103825260308152602001806127456030913960400191505060405180910390fd5b6107f68161138f565b50565b60098054604080516020601f60026000196101006001881615020190951694909404938401819004810282018101909252828152606093909290918301828280156108855780601f1061085a57610100808354040283529160200191610885565b820191906000526020600020905b81548152906001019060200180831161086857829003601f168201915b505050505090505b90565b600061089b826113d7565b6108d957604051600160e51b62461bcd02815260040180806020018281038252602b815260200180612775602b913960400191505060405180910390fd5b506000908152600260205260409020546001600160a01b031690565b600061090082610d22565b9050806001600160a01b0316836001600160a01b0316141561096c5760408051600160e51b62461bcd02815260206004820181905260248201527f4b495031373a20617070726f76616c20746f2063757272656e74206f776e6572604482015290519081900360640190fd5b336001600160a01b0382161480610988575061098881336112b5565b6109c657604051600160e51b62461bcd0281526004018080602001828103825260378152602001806127a06037913960400191505060405180910390fd5b60008281526002602052604080822080546001600160a01b0319166001600160a01b0387811691821790925591518593918516917f8c5be1e5ebec7d5bd14f71427d1e84f3dd0314c0f7b2291e5b200ac8c7c3b92591a4505050565b60075490565b610a3233826113f4565b610a7057604051600160e51b62461bcd0281526004018080602001828103825260308152602001806125d46030913960400191505060405180910390fd5b610a7b83838361149b565b505050565b6000610a8b83610d79565b8210610acb57604051600160e51b62461bcd02815260040180806020018281038252602a815260200180612531602a913960400191505060405180910390fd5b6001600160a01b0383166000908152600560205260409020805483908110610aef57fe5b9060005260206000200154905092915050565b6000610b0d33611023565b610b4b57604051600160e51b62461bcd02815260040180806020018281038252603081526020018061255b6030913960400191505060405180910390fd5b610b5583836114ba565b50600192915050565b610a7b83838360405180602001604052806000815250611036565b6000610b8433610bd3565b610bc257604051600160e51b62461bcd0281526004018080602001828103825260308152602001806127456030913960400191505060405180910390fd5b610bcb826114d7565b506001919050565b6000610be6600d8363ffffffff6114e916565b92915050565b6000610bf6610a22565b8210610c3657604051600160e51b62461bcd02815260040180806020018281038252602b8152602001806126f6602b913960400191505060405180910390fd5b60078281548110610c4357fe5b90600052602060002001549050919050565b610c5d610e87565b610c9f5760408051600160e51b62461bcd0281526020600482018190526024820152600080516020612604833981519152604482015290519081900360640190fd5b601080546001600160a01b0319166001600160a01b0392909216919091179055565b610cc9610e87565b610d0b5760408051600160e51b62461bcd0281526020600482018190526024820152600080516020612604833981519152604482015290519081900360640190fd5b8051610d1e90600f9060208401906123eb565b5050565b6000818152600160205260408120546001600160a01b031680610be657604051600160e51b62461bcd0281526004018080602001828103825260288152602001806125ac6028913960400191505060405180910390fd5b60006001600160a01b038216610dc357604051600160e51b62461bcd0281526004018080602001828103825260298152602001806126a56029913960400191505060405180910390fd5b6001600160a01b0382166000908152600360205260409020610be690611553565b610dec610e87565b610e2e5760408051600160e51b62461bcd0281526020600482018190526024820152600080516020612604833981519152604482015290519081900360640190fd5b600e546040516000916001600160a01b0316907f8be0079c531659141344cd1fd0a4f28419497f9722a3daafe3b4186f6b6457e0908390a3600e80546001600160a01b0319169055565b600e546001600160a01b031690565b600e546001600160a01b0316331490565b600a8054604080516020601f60026000196101006001881615020190951694909404938401819004810282018101909252828152606093909290918301828280156108855780601f1061085a57610100808354040283529160200191610885565b610f0233611023565b610f4057604051600160e51b62461bcd02815260040180806020018281038252603081526020018061255b6030913960400191505060405180910390fd5b6107f681611557565b610f523361159f565b565b6001600160a01b038216331415610fb55760408051600160e51b62461bcd02815260206004820152601860248201527f4b495031373a20617070726f766520746f2063616c6c65720000000000000000604482015290519081900360640190fd5b3360008181526004602090815260408083206001600160a01b03871680855290835292819020805460ff1916861515908117909155815190815290519293927f17307eab39ab6107e8899845ad3d59bd9653f200f220920489ca2b5937696c31929181900390910190a35050565b6000610be6600c8363ffffffff6114e916565b611041848484610a28565b61104d848484846115e7565b61108b57604051600160e51b62461bcd0281526004018080602001828103825260308152602001806126756030913960400191505060405180910390fd5b50505050565b606061109c826113d7565b6110da57604051600160e51b62461bcd02815260040180806020018281038252602f815260200180612646602f913960400191505060405180910390fd5b6010546001600160a01b0316156111ca5760105460408051600160e01b63c87b56dd0281526004810185905290516001600160a01b039092169163c87b56dd91602480820192600092909190829003018186803b15801561113a57600080fd5b505afa15801561114e573d6000803e3d6000fd5b505050506040513d6000823e601f3d908101601f19168201604052602081101561117757600080fd5b81019080805164010000000081111561118f57600080fd5b820160208101848111156111a257600080fd5b81516401000000008111828201871017156111bc57600080fd5b509094506107a19350505050565b60606111d46119ca565b905060008151116111f457604051806020016040528060008152506112ae565b806111fe84611a2b565b6040516020018083805190602001908083835b602083106112305780518252601f199092019160209182019101611211565b51815160209384036101000a600019018019909216911617905285519190930192850191508083835b602083106112785780518252601f199092019160209182019101611259565b6001836020036101000a038019825116818451168082178552505050505050905001925050506040516020818303038152906040525b9392505050565b6001600160a01b03918216600090815260046020908152604080832093909416825291909152205460ff1690565b610f523361138f565b6112f4610e87565b6113365760408051600160e51b62461bcd0281526020600482018190526024820152600080516020612604833981519152604482015290519081900360640190fd5b6107f681611af2565b61134833610bd3565b61138657604051600160e51b62461bcd0281526004018080602001828103825260308152602001806127456030913960400191505060405180910390fd5b6107f681611b96565b6113a0600d8263ffffffff611bde16565b6040516001600160a01b038216907f90eabbc0c667db2a5029ed6bc0f5fe9f356d11684a4ca9fcfaec0e53f12b9c8e90600090a250565b6000908152600160205260409020546001600160a01b0316151590565b60006113ff826113d7565b61143d57604051600160e51b62461bcd02815260040180806020018281038252602b8152602001806127d7602b913960400191505060405180910390fd5b600061144883610d22565b9050806001600160a01b0316846001600160a01b031614806114835750836001600160a01b031661147884610890565b6001600160a01b0316145b80611493575061149381856112b5565b949350505050565b6114a6838383611c48565b6114b08382611d92565b610a7b8282611e87565b6114c48282611ec5565b6114ce8282611e87565b610d1e81611ffc565b6107f66114e382610d22565b82612040565b60006001600160a01b03821661153357604051600160e51b62461bcd0281526004018080602001828103825260228152602001806126246022913960400191505060405180910390fd5b506001600160a01b03166000908152602091909152604090205460ff1690565b5490565b611568600c8263ffffffff61208816565b6040516001600160a01b038216907f6ae172837ea30b801fbfcdd4108aa1d5bf8ff775444fd70256b44e6bf3dfc3f690600090a250565b6115b0600c8263ffffffff611bde16565b6040516001600160a01b038216907fe94479a9f7e1952cc78f2d6baab678adc1b772d936c6583def489e524cb6669290600090a250565b60008060606115fe866001600160a01b031661210c565b61160d57600192505050611493565b856001600160a01b031663150b7a0260e01b3389888860405160240180856001600160a01b03166001600160a01b03168152602001846001600160a01b03166001600160a01b0316815260200183815260200180602001828103825283818151815260200191508051906020019080838360005b83811015611699578181015183820152602001611681565b50505050905090810190601f1680156116c65780820380516001836020036101000a031916815260200191505b5060408051601f198184030181529181526020820180516001600160e01b03166001600160e01b0319909a16999099178952518151919890975087965094509250829150849050835b6020831061172e5780518252601f19909201916020918201910161170f565b6001836020036101000a0380198251168184511680821785525050505050509050019150506000604051808303816000865af19150503d8060008114611790576040519150601f19603f3d011682016040523d82523d6000602084013e611795565b606091505b5080519193509150158015906117d557508051600160e11b630a85bd010290602080840191908110156117c757600080fd5b50516001600160e01b031916145b156117e557600192505050611493565b856001600160a01b0316636745782b60e01b3389888860405160240180856001600160a01b03166001600160a01b03168152602001846001600160a01b03166001600160a01b0316815260200183815260200180602001828103825283818151815260200191508051906020019080838360005b83811015611871578181015183820152602001611859565b50505050905090810190601f16801561189e5780820380516001836020036101000a031916815260200191505b5060408051601f198184030181529181526020820180516001600160e01b03166001600160e01b0319909a16999099178952518151919890975087965094509250829150849050835b602083106119065780518252601f1990920191602091820191016118e7565b6001836020036101000a0380198251168184511680821785525050505050509050019150506000604051808303816000865af19150503d8060008114611968576040519150601f19603f3d011682016040523d82523d6000602084013e61196d565b606091505b5080519193509150158015906119ad57508051600160e01b636745782b02906020808401919081101561199f57600080fd5b50516001600160e01b031916145b156119bd57600192505050611493565b5060009695505050505050565b600f8054604080516020601f60026000196101006001881615020190951694909404938401819004810282018101909252828152606093909290918301828280156108855780601f1061085a57610100808354040283529160200191610885565b606081611a5357506040805180820190915260018152600160fc1b60030260208201526107a1565b8160005b8115611a6b57600101600a82049150611a57565b6060816040519080825280601f01601f191660200182016040528015611a98576020820181803883390190505b50859350905060001982015b8315611ae957600a840660300160f81b82828060019003935081518110611ac757fe5b60200101906001600160f81b031916908160001a905350600a84049350611aa4565b50949350505050565b6001600160a01b038116611b3a57604051600160e51b62461bcd0281526004018080602001828103825260268152602001806124e86026913960400191505060405180910390fd5b600e546040516001600160a01b038084169216907f8be0079c531659141344cd1fd0a4f28419497f9722a3daafe3b4186f6b6457e090600090a3600e80546001600160a01b0319166001600160a01b0392909216919091179055565b611ba7600d8263ffffffff61208816565b6040516001600160a01b038216907f86e57fd2b90329052917118de7c3f521f400d439b9650deaa906a25b08b9456090600090a250565b611be882826114e9565b611c2657604051600160e51b62461bcd02815260040180806020018281038252602181526020018061258b6021913960400191505060405180910390fd5b6001600160a01b0316600090815260209190915260409020805460ff19169055565b826001600160a01b0316611c5b82610d22565b6001600160a01b031614611ca357604051600160e51b62461bcd0281526004018080602001828103825260288152602001806126ce6028913960400191505060405180910390fd5b6001600160a01b038216611ceb57604051600160e51b62461bcd02815260040180806020018281038252602381526020018061250e6023913960400191505060405180910390fd5b611cf481612112565b6001600160a01b0383166000908152600360205260409020611d159061214d565b6001600160a01b0382166000908152600360205260409020611d3690612164565b60008181526001602052604080822080546001600160a01b0319166001600160a01b0386811691821790925591518493918716917fddf252ad1be2c89b69c2b068fc378daa952ba7f163c4a11628f55a4df523b3ef91a4505050565b6001600160a01b038216600090815260056020526040812054611dbc90600163ffffffff61216d16565b600083815260066020526040902054909150808214611e57576001600160a01b0384166000908152600560205260408120805484908110611df957fe5b906000526020600020015490508060056000876001600160a01b03166001600160a01b031681526020019081526020016000208381548110611e3757fe5b600091825260208083209091019290925591825260069052604090208190555b6001600160a01b0384166000908152600560205260409020805490611e80906000198301612469565b5050505050565b6001600160a01b0390911660009081526005602081815260408084208054868652600684529185208290559282526001810183559183529091200155565b6001600160a01b038216611f235760408051600160e51b62461bcd02815260206004820152601f60248201527f4b495031373a206d696e7420746f20746865207a65726f206164647265737300604482015290519081900360640190fd5b611f2c816113d7565b15611f815760408051600160e51b62461bcd02815260206004820152601b60248201527f4b495031373a20746f6b656e20616c7265616479206d696e7465640000000000604482015290519081900360640190fd5b600081815260016020908152604080832080546001600160a01b0319166001600160a01b038716908117909155835260039091529020611fc090612164565b60405181906001600160a01b038416906000907fddf252ad1be2c89b69c2b068fc378daa952ba7f163c4a11628f55a4df523b3ef908290a45050565b600780546000838152600860205260408120829055600182018355919091527fa66cc928b5edb82af9bd49922954155ab7b0942694bea4ce44661d9a8736c6880155565b61204a82826121af565b6000818152600b60205260409020546002600019610100600184161502019091160415610d1e576000818152600b60205260408120610d1e9161248d565b61209282826114e9565b156120e75760408051600160e51b62461bcd02815260206004820152601f60248201527f526f6c65733a206163636f756e7420616c72656164792068617320726f6c6500604482015290519081900360640190fd5b6001600160a01b0316600090815260209190915260409020805460ff19166001179055565b3b151590565b6000818152600260205260409020546001600160a01b0316156107f657600090815260026020526040902080546001600160a01b0319169055565b805461216090600163ffffffff61216d16565b9055565b80546001019055565b60006112ae83836040518060400160405280601e81526020017f536166654d6174683a207375627472616374696f6e206f766572666c6f7700008152506121db565b6121b98282612275565b6121c38282611d92565b600081815260066020526040812055610d1e8161234f565b6000818484111561226d57604051600160e51b62461bcd0281526004018080602001828103825283818151815260200191508051906020019080838360005b8381101561223257818101518382015260200161221a565b50505050905090810190601f16801561225f5780820380516001836020036101000a031916815260200191505b509250505060405180910390fd5b505050900390565b816001600160a01b031661228882610d22565b6001600160a01b0316146122d057604051600160e51b62461bcd0281526004018080602001828103825260248152602001806127216024913960400191505060405180910390fd5b6122d981612112565b6001600160a01b03821660009081526003602052604090206122fa9061214d565b60008181526001602052604080822080546001600160a01b0319169055518291906001600160a01b038516907fddf252ad1be2c89b69c2b068fc378daa952ba7f163c4a11628f55a4df523b3ef908390a45050565b60075460009061236690600163ffffffff61216d16565b6000838152600860205260408120546007805493945090928490811061238857fe5b9060005260206000200154905080600783815481106123a357fe5b600091825260208083209091019290925582815260089091526040902082905560078054906123d6906000198301612469565b50505060009182525060086020526040812055565b828054600181600116156101000203166002900490600052602060002090601f016020900481019282601f1061242c57805160ff1916838001178555612459565b82800160010185558215612459579182015b8281111561245957825182559160200191906001019061243e565b506124659291506124cd565b5090565b815481835581811115610a7b57600083815260209020610a7b9181019083016124cd565b50805460018160011615610100020316600290046000825580601f106124b357506107f6565b601f0160209004906000526020600020908101906107f691905b61088d91905b8082111561246557600081556001016124d356fe4f776e61626c653a206e6577206f776e657220697320746865207a65726f20616464726573734b495031373a207472616e7366657220746f20746865207a65726f20616464726573734b49503137456e756d657261626c653a206f776e657220696e646578206f7574206f6620626f756e64734d696e746572526f6c653a2063616c6c657220646f6573206e6f74206861766520746865204d696e74657220726f6c65526f6c65733a206163636f756e7420646f6573206e6f74206861766520726f6c654b495031373a206f776e657220717565727920666f72206e6f6e6578697374656e7420746f6b656e4b495031373a207472616e736665722063616c6c6572206973206e6f74206f776e6572206e6f7220617070726f7665644f776e61626c653a2063616c6c6572206973206e6f7420746865206f776e6572526f6c65733a206163636f756e7420697320746865207a65726f20616464726573734552433732314d657461646174613a2055524920717565727920666f72206e6f6e6578697374656e7420746f6b656e4b495031373a207472616e7366657220746f206e6f6e204b49503137526563656976657220696d706c656d656e7465724b495031373a2062616c616e636520717565727920666f7220746865207a65726f20616464726573734b495031373a207472616e73666572206f6620746f6b656e2074686174206973206e6f74206f776e4b49503137456e756d657261626c653a20676c6f62616c20696e646578206f7574206f6620626f756e64734b495031373a206275726e206f6620746f6b656e2074686174206973206e6f74206f776e4275726e6572526f6c653a2063616c6c657220646f6573206e6f74206861766520746865204d696e74657220726f6c654b495031373a20617070726f76656420717565727920666f72206e6f6e6578697374656e7420746f6b656e4b495031373a20617070726f76652063616c6c6572206973206e6f74206f776e6572206e6f7220617070726f76656420666f7220616c6c4b495031373a206f70657261746f7220717565727920666f72206e6f6e6578697374656e7420746f6b656ea165627a7a72305820e4025bd55b1d7a30fe041b55f2509043fd89fd4f63fef655a7266862699ddb4c0029526f6c65733a206163636f756e7420697320746865207a65726f2061646472657373",
  "linkReferences": {},
  "deployedLinkReferences": {}
}